:020000040800F2
:1000000068090020D5000008911D0008A30F000812
:1000100000000000000000000000000000000000E0
:10002000000000000000000000000000491F000860
:100030000000000000000000211E00084B1F000807
:10004000E7000008E7000008E7000008E7000008F4
:10005000E7000008150F00082D0F0008E700000852
:1000600000000000E7000008E7000008E7000008C3
:10007000E7000008E700000800000000E7000008B3
:100080000000000000000000000000000000000070
:10009000E700000800000000E7000008E700000893
:1000A00000000000E7000008000000000000000061
:1000B000C5230008E7000008000000000000000061
:1000C0000348854600F014FD00480047D94A00085F
:1000D000680900200448804704480047FEE7FEE71F
:1000E000FEE7FEE7FEE7FEE721210008C100000869
:1000F00030B50B46014600202022012409E00D46C0
:10010000D5409D4205D31D469540491B2546954047
:1001100040191546521E002DF1DC30BD70B500248B
:100120002546002801DA01244042002901DA012590
:100130004942FFF7DDFFAC4200D04042002C00D026
:10014000494270BDF0B51FB40646002082B0054696
:100150004024019100901BE0019922460F46304651
:1001600000F04EFB049A059B801A994110D310466B
:100170001946224600F034FB361A8F410197224679
:1001800001200021009F00F02BFB38184D4100900A
:100190002046641E0028DFDC019B00982946324679
:1001A00007B0F0BDF8B500242546002904DA0E4654
:1001B000012400214042B141002B04DA1E460023F5
:1001C00052420125B341FFF7BDFF8C4617461E463C
:1001D000AC4203D0002540428D41AC46002C02D0F9
:1001E000002657429E4161463A46334601B0F0BD73
:1001F000F0B51FB486B000200090019002900698E0
:10020000069980B204900798090C02040014114367
:1002100007900027089D099806913E463C460390AA
:100220000398A9B20204000C039004982D0C154306
:1002300048430021224600F0D3FAC7197141103417
:100240000E46402CECDB3846029A00F0C9FA009AC0
:10025000019B801800905941029801911030029042
:100260004028CCDB00980BB0F0BD0146613919295C
:1002700000D82038704703460B439B0703D009E0A2
:1002800008C9121F08C0042AFAD203E00B780370D1
:10029000401C491C521EF9D27047D2B201E00270D4
:1002A000401C491EFBD270470022F6E710B51346EA
:1002B0000A4604461946FFF7F0FF204610BD421CCF
:1002C0000178401C0029FBD1801A704710B500222C
:1002D00000E0521C835C8C5CA34201D1002BF8D15E
:1002E000D8B2E1B2401A10BD30B504460020034632
:1002F00000E05B1C934203D2E05CCD5C401BF8D075
:1003000030BD03460A780270401C491C002AF9D10E
:10031000184670470321001D401E037812021A433D
:10032000491EF9D510467047034603220870000A9B
:10033000491C521EFAD51846704700000FB400B58C
:100340008DB009900B9010A900200091C0430A9035
:1003500000200C9006480690064807906A4609A8B7
:100360000F9900F087FA0DB008BC04B018470000E0
:1003700095080008B5080008FFB50027FF4383B0C3
:1003800000205C6801909E681D46A9697F1C049846
:1003900088470090296A88470028F6D10098401CB9
:1003A0000CD0032040028443002E19DD600614D5D2
:1003B00000982B2809D02D280FD103E00020C0433E
:1003C00007B0F0BD012080020443A9697F1C049896
:1003D0008847761E0090002E02DD0098302803D05A
:1003E0000598002825D035E0012040020443A96982
:1003F000761E7F1C049888470090002E03DD782825
:1004000005D0582803D00598002810D022E0059880
:10041000002801D010281DD1012040028443A96981
:10042000761E7F1C049888470090102002E0082068
:1004300000E00A2005900DE0012149020C43059AD5
:100440000199761E514308180190A9697F1C0498F0
:1004500088470090002E05DD0599009800F0F4F91A
:100460000028E9DAE96904988847A00502D4012048
:10047000C043A5E7E00722D1600611D560050198C9
:1004800000D5404229680A1D2A600968220501D565
:10049000087014E0220701D5088010E008600EE023
:1004A0002868011D29600068210502D501990170A5
:1004B00005E02107019901D5018000E0016038467F
:1004C0007EE7FFB5002083B00090506801909169ED
:1004D0001446002697680498884705460C990698A4
:1004E000084305D009E0A169761C049888470546B1
:1004F000216A284688470028F5D1681C03D0019856
:10050000C00704D017E00020C04307B0F0BD20684A
:10051000011D2160006800900DE00198C00704D122
:10052000009805700098401C0090A169761C7F1E01
:10053000049888470546002F1CDD681C1AD00698D1
:1005400000280FD0E817C00E401941118A00069903
:100550004009511840012A1A0968012090400142BF
:10056000DBD107E00C980028D7D1216A28468847BC
:100570000028D2D0E169049888470C98002807D158
:10058000002E05DD0198C00702D1009800210170FE
:10059000A068B84204DD0C98002804D0002F02D0D7
:1005A0000120C043B1E73046AFE70000F0B5074691
:1005B0000846584087B0C00F049048000E465900C6
:1005C00040084908BC1A884105D2384631461E46C3
:1005D00017460B4602465800400810434CD0300DD9
:1005E000039040055900400D490D0590401A0290B6
:1005F000402872DA18030121000B09050843019015
:1006000004980092002805D00199524200208841A8
:1006100000920190029840210A1A0199009800F076
:10062000DFF805460C466B4607CB00F0FAF8C01918
:100630007141039A0E0D0023D71756401A467A408F
:10064000164344D0049A002A2DD0029A012A039A14
:1006500015DC1205C01A914101263605001C7141B6
:10066000D20F059ED2070093019202962A46234696
:1006700000F03FF907B0F0BD38463146FAE71605FD
:10068000224A0F46B218C01AB74101210905001CC1
:100690004F4100187F41114618187941E20F10436D
:1006A0006D19644113E0E2076D0815436408C20741
:1006B0001443039A01261205C01A91413605001C05
:1006C0007141CE07400830434908C01851412A46BD
:1006D000234600F001F9CDE7FFE70498012240002E
:1006E000C117121A00238B4104983146C417381AD7
:1006F000A141EEE730B40124E407634030BC55E784
:1007000030B40124E407614030BC4FE70000E0FF53
:10071000F0B51FB488B00B99099800244840099996
:10072000C00F490049080991C0070B990090490082
:1007300049080B9109990898A64608431CD00B99C3
:100740000A98084318D0099801244000420D480037
:10075000410D099824050003000B204309900B98D4
:100760000003000B20430B9050181C494018002236
:1007700001901446104605E0002001460DB0F0BD82
:10078000032801DA034600E003239C46C11A0AAE9F
:100790000AE05F0008ADED5B4F00F75B7D4300278B
:1007A000AA187C41491C5B1E6145F2DD410004AB87
:1007B0005A522104120C0A43240C401C0828DFDB87
:1007C000019802900099704601910090059B049A4F
:1007D0000799069800F08DF8D0E700000DFCFFFFA8
:1007E00010B5202A04DB0146203A9140002010BDBC
:1007F000914020239C1A0346E3401943904010BDCA
:1008000010B5202A04DB0846203AD040002110BD54
:100810000B46D340D0402024A21A914008431946E9
:1008200010BD10B5202A06DBCB170846203A104130
:10083000C1170B4306E00B461341D0402024A21AF7
:1008400091400843194610BD3A2800D23038202381
:1008500002469A43412A01D310463738884201D3D1
:100860000020C043704700000268137851180160EF
:100870001846704710B5D1600449516104491162AE
:1008800000211161114600F04DF910BD6908000802
:10089000150B00084268002A08D001680B78491C33
:1008A000002B03D0521E06C0184670470121C160BC
:1008B000881E70474268002A0BD0C3680168002B6D
:1008C00007D183688B4204D0491E521C06C0002009
:1008D00070470020C043704710B5002B08DA002491
:1008E000401C614192185B411A4301D1400840000D
:1008F00010BDF0B51FB482B005460C0003D0084609
:1009000001F0AEFD02E001F0ABFD203002460090A8
:1009100021462846FFF764FF049B059A04460F46CC
:1009200018431143084314D0184610431BD00098B5
:1009300040210A1A18460599FFF762FF05460E4640
:10094000009A05990498FFF74BFF084305D0012052
:1009500004E02046394607B0F0BD0020C11705432A
:100960000E432C43374300990E986305401A7905CE
:10097000E40A00220C43FD0A0A3002D50020014699
:10098000E9E70105101969410C9C0D9D00196941A9
:10099000FFF7A2FFDFE70000F0B50C465C4085B032
:1009A000E40FE40703944C000026640859009446C1
:1009B000490802460296224321D062460A431ED0CD
:1009C0006200570D4A000E032303550D0124024611
:1009D0002C492405781B1B0B360B40182343264358
:1009E000614600901C46501AB44103D30098401C45
:1009F000009002E0921800985B41002803DA002082
:100A0000014605B0F0BD00200121090507468646D4
:100A100011E064461D46141BB54106D36546521BC2
:100A2000B341744607430C43A646CD074008490826
:100A3000284392185B4105460D43EAD110461843FE
:100A400013D06046194650407140084306D06046B6
:100A5000101AB34106D20122002306E0002201232E
:100A6000DB0702E00122D2435310009874460105CF
:100A7000381C6141029C039D00196941FFF72CFF5E
:100A8000BFE70000FD0300004A0009030123090B32
:100A90001B0519430A4B10B5520D9A4202DA002089
:100AA000014610BD064B34339A4203DC9A1AFFF715
:100AB000A7FE10BD034BD218FFF792FE10BD000039
:100AC000FF030000CDFBFFFF10B5002904DB01246C
:100AD000E40740428C412146002B04DB1C460123E5
:100AE000DB075242A341994200D1904210BD000061
:100AF000064C0125064E05E0E36807CC2B430C3C71
:100B000098471034B442F7D3FFF7DEFA685800086C
:100B10008858000810B50F21C0B2490200F09EF9B4
:100B200010BD0000F3B58DB000200A9001200B909D
:100B3000002608460C300C4609906269012109988C
:100B40009047051E2ED0252D2DD0216A88470028DC
:100B500018D06269012109989047216A88470028C6
:100B6000F7D1411E62690998904700E0761CA1699F
:100B70000D988847216A88470028F7D1E1690D98C8
:100B80008847DAE7A1690D9888470746A84201D14E
:100B9000761CD2E7E1690D9888477F1C02D10A983C
:100BA000002877D049E1002762693D463946099817
:100BB00090472A280CD162690121099890470125A4
:100BC00006E00A214F433F18303FEBD41020054385
:100BD0006269012109989047014630390A2903D2F8
:100BE0009B498F42DEDCECE7E90600D4994F6C2884
:100BF0000AD04C2810D0682824D06A282ED0742817
:100C00000CD07A280AD00DE062690121099890473A
:100C10006C2823D004211CE02020054362690121B7
:100C200009989047A760656065284FD026DC582852
:100C300039D01ADC452849D012DC252834D0412887
:100C4000B0D143E06269012109989047682802D039
:100C500008210D43E6E70120C002DEE70220DCE7C1
:100C6000462833D047282CD130E05B2870D061284B
:100C70002CD063286CD0642823D161E06F284FD03A
:100C800009DC662822D0672820D0692826D06E2863
:100C900017D12EE0CDE070284DD073286FD0752885
:100CA0004ED078280DD154E0A1690D9888470546AB
:100CB000252800D16CE7E1690D9888476D1C00D1AB
:100CC0006DE7BAE00A224CE00A2252E001202346F6
:100CD0006A46C0430D99C046C046A3E0284640215D
:100CE00008436060A807234601D5002239E00022AE
:100CF0003FE0E80700D020E72068011D2160006880
:100D0000290501D5067018E7290701D5068014E7E3
:100D1000A90703D5F117066041600EE706600CE7EE
:100D20002846402108436060A807234601D50822D1
:100D300017E008221DE0484928460840606016E098
:100D40002846402108436060A8072346BCD5B9E780
:100D500015E02846402108436060A80707D52346D0
:100D600010220120C0430D99C046C0465AE02346D8
:100D700010220120C0430D99FFF7FEFA52E0002136
:100D80000C910B460091632802D05B2807D043E00A
:100D9000E80601D40120A060012000903CE06269D7
:100DA0000121099890475E2805D101200C90014649
:100DB0006269099890472169002906D10B4601AA6A
:100DC0008F00491CD3510829FADB002835D021694E
:100DD00000290ED1C117C90E09184A11930001AAA2
:100DE0009A1849094901411A0120136888400343B0
:100DF000136062690121099890475D28E5D10C983C
:100E0000002808D0002001AB81005A58401CD24372
:100E10005A500828F8DB01AB01202246C0430D9947
:100E2000FFF74FFB00280ADA401C06D10B98002878
:100E300003D00020C0430FB0F0BD0A98FBE7E907DC
:100E400002D10A99491C0A91361800200B9074E6C9
:100E5000CCCCCC0CFFFFFF7FF1F7FFFF7F2801D93F
:100E6000002207E0054B42089A5CC00700D1120936
:100E70001207120F0120904008407047C856000822
:100E800070B58C180578401C6B075B0F01D1037897
:100E9000401C2A1106D10278401C03E006780E702F
:100EA000401C491C5B1EF9D12B0705D40023521EA0
:100EB0000DD40B70491CFAE70378401CCB1A921C26
:100EC00003E01D780D70491C5B1C521EF9D5A14230
:100ED000D8D3002070BD000010B5024600BF0C48FA
:100EE0008068012318430A4B986000BF05E008485A
:100EF0001378521C037000BF00BF08464B1E1946F2
:100F00000028F4D100BF02480068C0B210BD000044
:100F10000030024010B5012000F03EF9002804D056
:100F2000012000F0A5F800F01DF810BD10B5042058
:100F300000F032F9002804D0042000F099F800F005
:100F400029F8082000F028F9002804D0082000F033
:100F50008FF802F0A1FD10BD016030BF704700BFE7
:100F6000FEE7000000BF084909680846074909680C
:100F7000411A7D22D200914204D90449086001211E
:100F8000034A117070470000600000206C000020D0
:100F90003C000020012001490870704754000020E7
:100FA000704700BFFEE7000002480068401C01498E
:100FB000086070476000002010B50446E007C00FCD
:100FC000002803D008210B4800F079F902202040C6
:100FD000002804D002210520000700F070F9082045
:100FE0002040002805D0FF2101310520000700F036
:100FF00066F910BD0004005010B50446E007C00FAC
:10100000002803D008210B4800F053F902202040AB
:10101000002804D002210520000700F04AF908202A
:101020002040002805D0FF2101310520000700F0F5
:1010300040F910BD0004005008B50549896B014313
:10104000034A91631146896B0140009100BF08BDBE
:101050000010024008B50549496B0143034A51633A
:101060001146496B0140009100BF08BD00100240CD
:101070000149486170470000000401400249496885
:101080008143014A516070470004014002490968E8
:101090008143014A116070470004014002494968D8
:1010A0000143014A51607047000401400249C96888
:1010B0000143014AD16070470004014002490968B8
:1010C0000143014A116070470004014002498968E8
:1010D0000143014A916070470004014070B5044625
:1010E0000025207900284DD02068002850D0607954
:1010F000002804D0012809D0022815D10DE020686D
:10110000FFF7BCFF2068FFF7D9FF0FE02068FFF76B
:10111000BDFF2068FFF7C2FF08E02068FFF7CEFFA1
:101120002068FFF7BBFF01E0012500BF00BFA079E9
:1011300000282DD0A079012804D002280DD0032842
:101140001DD115E020681349C9688143114AD16057
:1011500000BF2068FFF7BAFF13E020680D498968D7
:1011600081430C4A916000BF2068FFF79FFF08E0B1
:101170002068FFF7ABFF2068FFF798FF01E001252B
:1011800000BF05E02068FFF781FF2068FFF776FFCA
:10119000284670BD000401400146044840690840EB
:1011A000884201D1012070470020FCE70004014083
:1011B000F0B502460B460026002162E00124B4404F
:1011C00018682040014600295AD0586814680D4616
:1011D0004D436F00ED19AC430D464D4345432C4341
:1011E000146000BF5868012802D0586802280DD149
:1011F000986894680D464D436F00ED19AC430D4659
:101200004D4345432C43946000BF00BF1869D46828
:101210000D464D436F00ED19AC430D464D4345431C
:101220002C43D46000BF5868022829D1FF2911D867
:101230005869146A0D464D434D434D432F017D1BA4
:10124000AC430D464D434D434D4345432C4314623F
:1012500000BF15E05F69080A40430C0A60430C0AAE
:1012600060430401241A506AA0430C0A64430D0A27
:101270006C430D0A6C437C432043506200BF00BFA7
:10128000761C1868F040002898D15868012802D0D0
:101290005868022809D1DC681868556885430746F4
:1012A00067433D43556000BF00BF0020F0BD816231
:1012B00070478162704781617047816170478161C9
:1012C000704730B503680C464C4365006419A3436E
:1012D0000C464C4354432343036030BD30B5C368D0
:1012E0000C464C4365006419A3430C464C435443DD
:1012F0002343C36030BD30B5024600BF10684008CC
:101300004000106000BFCB68886814681F252D025C
:10131000AC431D0205432C43146000BF48681061B4
:1013200000BF00BF106801231843106000BF00BF5A
:101330009068DB039843906000BF8B6908699468EC
:10134000E40AE40205461D432C43946000BF08698B
:10135000002807D000BF90680123DB03184390608A
:1013600000BF00BF0868136803242405A343034398
:10137000136000BF486953680124E403A343034397
:10138000536000BF002030BD08B50549C96A01435C
:10139000034AD1621146C96A0140009100BF08BDED
:1013A0000010024070B504467D25ED002946204618
:1013B000FEF79EFE401E044948610020886105201A
:1013C000086100BF70BD000000E000E00348006954
:1013D0000121890408430149086170474010024017
:1013E000F8B5044600250C2C32D100BF1948C0685E
:1013F0002040210408432104401A1ED0042804D0B0
:10140000082806D00C2817D10FE000F02FFD054664
:101410001DE000F025F8002806D000F029F800288B
:1014200001D00D4D00E00D4D11E000F029F800282D
:1014300001D00125ED030AE000BF00F017FD0746CB
:1014400000F0F0FC064600F0FFFC054600BF00BFC0
:101450002846F8BD4010024000093D000024F40079
:1014600002480068042108408008704700100240CC
:10147000024800681021084000097047001002402F
:1014800003480069012149020840400A70470000F2
:101490004010024002484068072149030840704755
:1014A000001002408021C943C1607047CA214162D7
:1014B000532141627047FF2141627047F8B50546EC
:1014C0007D20C00000900026284600F04DF800283E
:1014D0001CD100BF401EE86000BF284600F044F861
:1014E00004460EE000F0BCF8012802D10098401E2E
:1014F0000090284600F038F804460098002800D1F3
:1015000001260098002801D0012CEBD13046F8BD0F
:1015100070B504460D4601262046FFF7C7FF20465A
:10152000FFF7CCFF01281AD02868A1684022914318
:101530000143A16000BFA8682169C90BC903014329
:10154000216100BF686821697F221204914302046F
:101550001143216100BF2046FFF7A4FF002620466B
:10156000FFF7A9FF304670BD0146C8684022104011
:10157000800970470168402291430160704701680B
:10158000402211430160704730B50246012300BF7D
:101590001068402420408009002826D14C68086843
:1015A00020438C682043CC6820430C6920434C695D
:1015B00020438C692043CC6920430C6A2043146883
:1015C0000B4D2C402043106050680424A0434C690C
:1015D000240C204350605C03086AA04204D1486A8E
:1015E00084B2146100BF00BF0023184630BD000064
:1015F0004000FFFF0146886880221040C009704704
:101600000146886880221040C009704701468868FA
:10161000C007C00F01225040504070470146886803
:101620000222104040087047026838239A430A4358
:10163000026070470173704710B5084A0B069B0D96
:10164000D2580C0C0F23A3409A430C0C0346A34022
:101650001A43024B0C06A40D1A5110BD080001409C
:1016600003480069012109040840000C704700008C
:1016700000E000E0014908607047000040000020E1
:10168000016801221143016070470000F0B585B088
:1016900004460D460120049000200390204600F0EF
:1016A00063F8002850D1E96868680843296908434D
:1016B000A96908432168264A114008432060A868A8
:1016C00061680322120391430143616000BF6869AE
:1016D000A168121191430143A16000BF1D488442DB
:1016E00003D10C20FFF77CFE0390039800282BD039
:1016F0002868002828D000200490039FA869029041
:101700002E680121C9030298884214D17900720819
:1017100088183146FEF7ECFC80B201900E49019822
:101720000840009001980007400F0099084300907E
:101730000098E06006E07108C8193146FEF7D8FC51
:1017400080B2E06000BF00BF049805B0F0BD0000AB
:10175000F369FFEF00440040F0FF00000146C86954
:10176000402210408009704701460868C007C00F3A
:10177000012250405040704708B50A49096900915C
:1017800000BF411C002900D0401C07E00549096941
:10179000012212041140002900D0401E0028F5D17A
:1017A00008BD000000E000E000BF0A488069C007F3
:1017B000C00F0028F9D10748406803210904884375
:1017C00004494860084640680121084301494860CF
:1017D000704700000020024008B5012000031749AF
:1017E000096B0143154A11631146096B01400091D1
:1017F00000BF00BF00201249896860229143014365
:101800000F4A916000BF00BF114689688022914352
:1018100001430B4A916000BF0A481146486100BF6E
:1018200000208968182291430143054A916000BF56
:10183000401E1146086100BF08BD000000100240B4
:1018400000300240B71DC10400B589B000200790E8
:101850000890182101A8FEF727FD0120FFF794FD4D
:101860000220FFF791FD022105200007FFF723FD6D
:10187000102105200007FFF71EFD01217148FFF729
:101880001AFDFF21013105200007FFF714FD01219A
:10189000C90305200007FFF70EFD08216948FFF77F
:1018A0000AFD00210846FFF7C7FE0121C9040020F8
:1018B000FFF7C2FE032189040020FFF7BDFE0122CD
:1018C000114605200007FFF709FD0022042105202D
:1018D0000007FFF703FD0022082105200007FFF79E
:1018E000FDFC0022012105200007FFF7EAFC002291
:1018F000042105200007FFF7E4FC00220821052051
:101900000007FFF7DEFC01200790012108A8017005
:10191000002141700121817007A8FFF7DFFB04203F
:101920000790012108A801700021417001218170F8
:1019300007A8FFF7D3FB08200790012108A8017032
:10194000002141700121817007A8FFF7C7FB022029
:10195000019001200290002003900490059001A9BD
:1019600005200007FFF724FC1020019001200290C1
:10197000002003900490059001A905200007FFF7BF
:1019800017FC012001900290002003900490059024
:1019900001A92C48FFF70CFC0220019000200290C6
:1019A000059001A92748FFF703FCFF2001300190B3
:1019B00001200290002003900490059001A90520C9
:1019C0000007FFF7F5FB0120C00301900120029002
:1019D000002003900490059001A905200007FFF75F
:1019E000E7FB082001900120029000200390049062
:1019F000059001A91348FFF7DBFB102001900020A0
:101A000002900120059001A90E48FFF7D1FB20208C
:101A10000190002002900120059001A90948FFF7DC
:101A2000C7FB0021052000F0BFF9052000F0B2F946
:101A30000021062000F0B8F9062000F0ABF909B04B
:101A400000BD00000004005000B58DB01C2106A8A8
:101A5000FEF72AFC18216846FEF726FC0120FFF756
:101A600093FC01204002009002200190032002908C
:101A70000120039004900590694605200007FFF7B8
:101A800097FB012080020090022001900320029029
:101A90000120039004900590694605200007FFF798
:101AA00087FB01204005FFF7C7FA00BF1E484068CA
:101AB0000121490608431C49486000BF00BF084691
:101AC000C068C91388431849C86000BF00BF0846F2
:101AD00000680121C90488431349086000BF00BFA2
:101AE000084600680121490488430F49086000BF87
:101AF000002006900D4807900020089009900A9059
:101B00000B900C9006A90848FFF7F5FB002108464A
:101B1000054AD268064B1A400B4603431A43024B50
:101B2000DA6000BF0DB000BD005400401A0610007E
:101B300001F8FFFF0EB50020009001900290FFF722
:101B400045FC002000907F200190FF200290694614
:101B50000148FFF7DDFC0EBD0028004000B591B044
:101B6000282107A8FEF7A0FB182101A8FEF79CFB7F
:101B700001200003FFF76EFA0120FFF705FC20208B
:101B80000190022002900320039000200490059011
:101B9000069001A905200007FFF70AFB40200190ED
:101BA00002200290032003900020049005900690EC
:101BB00001A905200007FFF7FBFA80200190022011
:101BC000029003200390002004900590069001A944
:101BD00005200007FFF7ECFA00200790FF200530F2
:101BE0000890002009900A900B90012040020C9070
:101BF00018200D9000200E900F900720109007A93C
:101C00000A48FFF7C1FC00200849496810229143A7
:101C10000143064A516000BF00BF104600684021E2
:101C200008431146086000BF11B000BD00300140FC
:101C300010B58EB040215448FFF73DFB802152483B
:101C4000FFF739FB1C2107A8FEF72EFB182101A87E
:101C5000FEF72AFB01204004FFF7EEF90220FFF710
:101C600093FB40200190022002900320039000206B
:101C700004900590069001A94348FFF799FA802047
:101C80000190022002900320039000200490059010
:101C9000069001A93C48FFF78BFA00211C2000F0B8
:101CA00083F81C2000F076F84B20400207900020BB
:101CB000089009900A900C200B9000200C900120B5
:101CC000C0030D9007A93148FFF7E0FC00BF2F4883
:101CD00080680121090308432C49886000BF00BFC8
:101CE000084640680921C9028843284948600846D7
:101CF00080682A2188432549886000BF0846FFF78D
:101D0000BFFC00BF21488068032109050840044644
:101D100001204005844214D000BF1C4800684008E0
:101D200040001A49086000BF084680680321090581
:101D30008843012149054018144988600846FFF787
:101D40009FFC00BF11480068FF21013108430F4983
:101D5000086000BF00BF08468068012108430B49A6
:101D6000886000BF00BF084600682021084307497B
:101D7000086000BF40210448FFF79DFA8021024817
:101D8000FFF799FA0EB010BD000400500044004067
:101D900070470000C206D20E01219140014A116035
:101DA0007047000000E100E010B5002819DA1A4A77
:101DB00003071B0F083B9B089B00D2588307DC0ED0
:101DC000FF23A3409A438B071B0E8407E40EA34016
:101DD0001A43114B0407240F083CA408A4001A510D
:101DE00018E00E4A03231B02D21883089B00D25826
:101DF0008307DC0EFF23A3409A438B071B0E840747
:101E0000E40EA3401A43054B032424021B19840843
:101E1000A4001A5110BD00001CED00E000E100E03C
:101E200070470000014600BF0548C068F02210401E
:101E300010400009034A125C0846D0407047000079
:101E400000100240B0540008014600BF0548C068B9
:101E5000072212021040000A034A125C0846D040D2
:101E60007047000000100240C054000810B500BFC9
:101E70001648C0680C210840002806D004280CD061
:101E8000082812D00C2816D111E0FFF703FB400BF5
:101E9000401C01218140CC0315E0FFF7E9FA00283E
:101EA00001D00B4C00E00B4C0DE00B4C0BE000F0B4
:101EB00015F8044607E0FFF7EDFA400B401C01213E
:101EC0008140CC0300BF00BF204610BD001002407F
:101ED00000093D000024F40000127A00F8B500BFAC
:101EE0001448C0680121090408400546002D07D1A7
:101EF000FFF7BEFA002801D00F4C00E00F4C01E0C4
:101F00000F4C00BF00BF00BF0A48C068032189050D
:101F10000840800D461C0748C0680F21890408400E
:101F2000800C0849085C604307463146FEF7E0F83C
:101F3000F8BD00000010024000093D000024F4003C
:101F400000127A00C8540008704710B5FFF72CF84B
:101F500010BD000010B500206B4909684908490010
:101F60000143694A116000BF00BF10460068C00706
:101F7000C00F002801D0FEF7F2FF0120C002634924
:101F800009680322D20291430143604A116000BFF5
:101F900000BF5F480068012108435D49086000BF39
:101FA00000BF00BF5A48006804210840800800288C
:101FB000F7D01020564949681F22120291430202AD
:101FC0001143534A516000BF00BF5148403000697F
:101FD000012108434E494031086100BF00BF00BFE6
:101FE0004B48403000690221084040080028F6D0E4
:101FF00000BF46480068C90108434449086000BF63
:1020000000BF4348403000690121C90408434049EA
:102010004031086100BF00BF084600690121C904C2
:1020200088433B494031086100BF012040040969F1
:102030000322120491430143354A4032116100BF2B
:10204000FFF7C4F900203249C968F02291430143E7
:102050002F4AD16000BF00BF1146C9680722120293
:10206000914301432A4AD16000BF00BF1146C968AD
:102070000722D20291430143254AD16000BF0120CB
:102080001146C968890889000143D16000BF00BFBB
:1020900000BF1F48C0680C2108400428F8D11D4823
:1020A000FFF780F90420042806D11B49096904229E
:1020B0001143194A116105E0174909690422914346
:1020C000154A116100BF1348FFF7D4FA13481049AD
:1020D0004031C968020C914382B211430C4A40322C
:1020E000D16000BF032000041146C9680209FF2324
:1020F0001B031A40914302011A401143044A403223
:10210000D16000BF10BD0000002002400070004000
:10211000001002400024F40000E000E008000C0081
:1021200015480068FF21013108431349086008463B
:10213000C068124908401049C86008460068104944
:1021400008400D49086008468068400840008860E3
:102150000846006801218904884307490860084649
:10216000C068FD21090488430349C8600020086154
:10217000C803044988607047001002400C40FF8883
:10218000F6FFF6FE00ED00E070470000FEB5624885
:10219000C4690568876800262007000F0190019830
:1021A00000280FD12020204000280BD020202840DC
:1021B000002807D000BF5848406AC0B2009000F025
:1021C000ADF8FEBD0198002878D0F807C00F0028B0
:1021D00004D1FF202130284000286FD0E007C00F35
:1021E00000280AD0FF2001302840002805D000BF79
:1021F00001204949086200BF064302202040002810
:102200000AD0F807C00F002806D000BF02204249BC
:10221000086200BF042006430420204000280AD0A2
:10222000F807C00F002806D000BF04203A49086212
:1022300000BF022006430820204000280DD02020A7
:102240002840002803D1F807C00F002805D000BFA0
:1022500008203149086200BF0643002E2DD02020FF
:10226000204000280AD020202840002806D000BFA7
:102270002948406AC0B2009000F050F826488068B3
:1022800040210840002803D108203040002811D008
:10229000FFF77AFF2048806840210840002806D0D8
:1022A0001D48806888431C49886006E006E0FEF708
:1022B00077FE02E0FEF774FE002682E701200005AB
:1022C000204000280BD0012080053840002806D08F
:1022D00000BF012000051049086200BF71E780209F
:1022E0002040002804D080202840002800D068E743
:1022F0004020204000280CD040202840002808D052
:1023000000BF05480068402188430349086000BFBA
:1023100057E700BF55E700000044004010B50446F1
:10232000204600F0C3F800BF2148FFF717FA002845
:10233000FAD001201F4908701F480078002836D1C4
:10234000082C1AD11D480068002830D0202000F049
:10235000ADF8082000F0AAF800BF1548FFF7FEF915
:102360000028FAD015480068401E14490860002073
:102370001349124A1268885419E00D2C08D1012023
:102380000D49087000200E490C4A126888540EE06E
:102390000A4801680068401C084A10600848445414
:1023A00010460068FF2802D901200349087010BDBB
:1023B0000044004055000020500000204C00002048
:1023C0006504002010B5FFF7E1FE10BD00BF0C480A
:1023D0008069C007C00F0028F9D109484068C007CC
:1023E000C00F002804D007480549C8600648C860E7
:1023F00003484068032109040843014948607047C5
:1024000000200240EFCDAB89050403020FB410B5E4
:1024100004A9074B02AA039800F0F6F9044602A9A2
:10242000002000F098FD204610BC08BC04B01847FE
:10243000572F00087CB51546024600201C4600298F
:102440000BD0491E00920191044B6A462146284652
:1024500000F0DAF9009A002111707CBD412F0008CC
:102460002021020C01D010211046020A01D0104692
:102470000839020901D01046091F820801D0104610
:10248000891E420801D0881E7047081A704730B470
:102490007446641E2578641CAB4204D3635D5B0004
:1024A000E31830BC18471D46F8E7000000BF00BF26
:1024B0000549C96980221140C9090029F7D0C1B274
:1024C000014A916200BF70470044004002E008C822
:1024D000121F08C1002AFAD170477047002001E09E
:1024E00001C1121F002AFBD1704710B50022022142
:1024F0002C2001F002FE022211462C2001F0FDFDED
:1025000010BD000010B504466D2209492E2001F0CF
:10251000F4FD002C05D0074A07492E2001F0CBFD21
:1025200004E0064A04492E2001F0C5FD10BD00005C
:102530000608000007060000061800000716000045
:1025400010B5002000F006F800220421362001F02A
:10255000B2FD10BD38B504466B460222002136207C
:1025600001F0EAFB2300FFF792FF0F12091B5B5BF0
:102570005B5B24325B5B3E454C555B00002168464B
:1025800001704078FE2108406946487049E069467C
:102590000878FC210840012108436946087040E0A2
:1025A00069460878FC210840022108436946087002
:1025B00037E068460078B321084048210143684667
:1025C00001704078802108436946487029E06846D8
:1025D0000178B32001406846017040784106490EF9
:1025E000684641701DE06946487802210843694603
:1025F000487016E069464878FD21084069464870F1
:102600000FE069460878CF21084020210843694639
:10261000087006E00121684601700321417000E066
:1026200000BF00BF6B4601220021362001F06FFD84
:1026300000AB013301221146362001F068FD38BDA0
:1026400010B50E20FFF786FF0122D20306212D20B0
:1026500001F031FD012000F0BFFE0120FFF77AFFFD
:1026600010BD70B50446224604212D2001F023FD43
:10267000032206212D2001F040FD002206212D20FD
:1026800001F03BFD0A212D2001F0F1FA0546284614
:1026900070BD0000F0B51FB486B00998089A030D0C
:1026A0000021024314D05148514A181850430514D0
:1026B0001198012810981AD0281A401C00264D4F56
:1026C0004D49009601910490002812DA444211E02D
:1026D0001198012449A3012801D11098C1430698FB
:1026E000119A84600360C26041600BB0F0BD40424B
:1026F000E4E70446210500203F4A001C51410391B4
:10270000029012E0E00707D032463B46019900985C
:10271000FDF7FEFF0191009032463B4610461946F8
:10272000FDF7F6FF06460F466410002CEAD1049828
:10273000039B0028029A0999089806DAFDF7E8FF3A
:10274000019B009AFDF7E4FF05E0FEF725F9019BE8
:10275000009AFEF721F904460E460022284BFEF7A8
:10276000B3F903D80020C043014607E00022254BFF
:1027700020463146FDF71AFFFEF786F9102409E0DE
:10278000002C0ADB0A220023FDF7DCFC079B303219
:102790001A55641E02460A43F2D11122641C079B9B
:1027A000121B1C19119B012B03D0012308430ED1CE
:1027B0000AE0084304D0112010900020119077E720
:1027C0001098151A6D1E0BE01098824202DD00234E
:1027D0006D1C03E0824201DA00236D1E002BEED057
:1027E000069811998260C16030C07EE701FCFFFF4E
:1027F000104D0000000014400000F03F30000000C9
:102800000000F0430000E03FFFB597B0064600250A
:1028100018E2252877D100242746FD49049400E0DA
:102820000443761C32780120203A90400842F7D1C8
:1028300030782A280ED00222307801463039092912
:1028400016D804990A235943303940181443761C8A
:102850000490F1E7189802C804911890002904DA4E
:102860000120400304434842049002200443761CA4
:1028700030782E2814D1042004437078761C2A283E
:1028800009D11898761C80C8189009E00A214F4396
:10289000303FC719761C3078014630390929F5D9FF
:1028A00030786C2810D006DC4C281AD068280ED05E
:1028B0006A2817D104E0742813D07A2812D110E0C6
:1028C0000120400504430CE00121090501E003213A
:1028D00009050C437178814203D1012000052418B9
:1028E000761C761C3078119066280BD013DC5828A3
:1028F0007DD009DC00287BD04528F6D04628F4D0CE
:1029000047281AD1A5E118E0632835D0642870D093
:10291000652812D19DE170286CD008DC6728F1D0C1
:1029200069287BD06E280DD06F2806D1BAE07328B5
:102930002ED0752871D0782859D01A9A19999047B5
:102940006D1C7EE16002400F022809D003280DD0E3
:102950000428189801680DD00D60001D189070E1D2
:102960001898EA1701680D604A60F6E71898016840
:102970000D80F2E70D70F0E718986A460178117241
:10298000001D18900020507202A80090012005E060
:10299000189802C8189000200091C04361070DD517
:1029A000002101E00199491C0191B94212DA8142EA
:1029B000F8DB009A515C0029F4D10BE0002101E022
:1029C0000199491C01918142FADB019A0099895CC5
:1029D0000029F5D1019904981A9B471A21463846D7
:1029E000199A00F097FA0199401945180BE04FE049
:1029F0002CE113E04EE0009800990078491C00910A
:102A00001A9A199990470198401E0190401CF2D1E2
:102A1000214638461A9B199A10E137E00A20002116
:102A2000009001916002410F022907D0189A01CA53
:102A30001892C2179446032908D00AE01898C01DBE
:102A4000C108C90005C91891944607E000B2C21731
:102A50009446042902D140B2C1178C460022614637
:102A6000944506DA0A460021404291418C462D21C8
:102A700002E0210504D52B216A461173012103E0F0
:102A8000E10701D02021F7E7029155E00A200AE092
:102A9000102008E010200090002104200443019140
:102AA000082703E008200021019100906002410FF7
:102AB000022907D0189A01CA1892002294460329C5
:102AC00008D008E01898C01DC108C90005C91891B0
:102AD000944603E080B2042900D1C0B200210291E3
:102AE000210729D51199702906D0009A1021019B40
:102AF0004A401A4305D00EE040216A461173012175
:102B000008E06146014306D030216A4611731199ED
:102B1000517302210291009A0821019B4A401A43F5
:102B20000AD16146014301D1610705D530216A46CA
:102B3000117301217F1E02911199582904D035A1EA
:102B40000E910DA90D910DE037A1F9E76146019BAA
:102B5000009AFDF7F7FA0E9B8C469B5C0D9A521E6D
:102B60000D92137061460143F0D10D9805A9081A22
:102B700020300190600703D501200004844300E069
:102B800001270198874201DD381A00E000200199F1
:102B900000904118029809180498401A0490E00324
:102BA00006D421461A9B199A049800F0B3F94519E6
:102BB000002706E003A81A9AC05D199990476D1C7A
:102BC0007F1C02988742F5DBE0030CD521461A9B57
:102BD000199A049800F09EF9451904E01A9A3020D9
:102BE000199990476D1C0099481E00900029F5DC4A
:102BF00008E00D980D990078491C0D911A9A1999C1
:102C000090476D1C0199481E01900029F1DC63E199
:102C100009280100303132333435363738396162B2
:102C20006364656600000000303132333435363776
:102C300038394142434445460000000000F05AF94B
:102C40004519761C3078002800D0E2E528461BB0F4
:102C5000F0BD600700D406271898C01DC108C90040
:102C600048680A680831C30FDB071891190001D0C2
:102C70009CA108E0210501D59BA104E0E10701D05A
:102C80009AA100E09AA1430011985B081091652871
:102C90000CD006DC452809D046281DD0472841D154
:102CA00041E0662818D067283CD13CE00021112F74
:102CB00001DB112000E0781C0191009008A911A807
:102CC000FFF7E8FC139905910021119A15927F1CDA
:102CD00012980197009150E00120C0070390012055
:102CE000019008A9009711A8FFF7D4FC139A149932
:102CF00005920022119B009212981593059A019259
:102D0000002901D0104602E0791C40180190381AC1
:102D100001D5019804E04042401E0090781C0190CB
:102D2000C01B029043E0012F00DA01270021112F80
:102D300001DD112000E038460191009008A911A89A
:102D4000FFF7A8FC13990591119A0021129815928A
:102D50000091019721070CD40599B94201DB019933
:102D600000E00191012904DD159A491E515C3029CA
:102D700006D0B84201DA011D05DA0121029115E001
:102D80000199491EEDE7002805DC009941180091E2
:102D90000199091A03E0019A411C914200DD019159
:102DA0000099401A401C02900120C00703902007A0
:102DB00006D402990198814202DB0020C0430290B0
:102DC00000206946C87707AF012103980337C90778
:102DD000884224D0022011902B20129003980028C2
:102DE0000CDA404203902D20129007E00A2103984C
:102DF000FDF77EF930317F1E039039701199481E1E
:102E000011900029F2DC03980028EFD1791E129866
:102E100008703078202108404530BF1E387006A861
:102E2000C01BC01D039010980078002800D001201E
:102E3000019941180298C0170918039809180498B5
:102E4000401A401E0490E00306D421461A9B199AAA
:102E5000049800F05FF8451910980078002803D016
:102E60001A9A199990476D1CE00324D521461A9BA4
:102E7000199A049800F04EF845191CE000980028B3
:102E800007DB00990598884203DD1598405C199985
:102E900001E0199930201A9A904700986D1C401C47
:102EA00000900298401E0290002804D11A9A2E2009
:102EB000199990476D1C0199481E01900029DDDC8D
:102EC00005E038781A9A7F1C199990476D1C039970
:102ED000481E03900029F4DC21461A9B199A049895
:102EE000ACE600002D0000002B00000020000000D8
:102EF00000000000F8B5044600251E461746880469
:102F000004D405E039462020B0476D1C641EF9D575
:102F10002846F8BDFFB50446002581B01E46C8030B
:102F200001D5302700E02027880404D505E0384685
:102F30000399B0476D1C641EF9D5284605B0F0BD55
:102F40004A68002A06D00A68531C0B601070486853
:102F5000401E486070470A68531C0B601070704731
:102F600070B506460B461446002504E018785B1C35
:102F7000FFF79CFA6D1CA542F8DB204670BD0000EF
:102F800001466E2908D009480818002806D0084ACA
:102F90008018002806D103E0002070470120FCE7DC
:102FA0000220FAE70020C043F7E70000AEFCFFFF75
:102FB000B8E8FFFFF3B5A3B00A2271492398FDF7E3
:102FC00093F900287ED100F001FF119000F0F8FE87
:102FD0001090042223990A310FA8FDF74CF904221E
:102FE00023990F310EA8FDF746F911991098401A50
:102FF0000D900F990E98401A0C9062480068007866
:103000000300FFF744FA081305080C090F13101307
:103010005D4C00250DE000BF5C4C002509E05C4CD8
:10302000002506E000BF5B4C002502E0594C00255E
:1030300000BF00BF53480068C079002807D10822AC
:10304000002320462946FDF77DF804460D4600F092
:103050002FFEC11722462B461E951F9420912190CA
:10306000FDF7C6F8059104906423002205990498A1
:103070001B931A921C911D901A461A9BFDF7B8F8E3
:10308000454A002303910290FDF78CF80A900D98B1
:10309000C117424B424A17931692189119901A463B
:1030A000169BFDF7A5F806460F463C4B3C4A059992
:1030B0000498C31851410C98C21713AC0BC4129258
:1030C000184600E05AE0129B139AFDF791F83A4631
:1030D000361A8A4117460222002330463946FDF748
:1030E00031F806460F462F4A002330463946FDF791
:1030F00029F806460F468022002330463946FDF760
:1031000021F806460F46284A002330463946FDF787
:1031100019F806460BA906A801F04CFC314623A07D
:1031200000F002FA64210B984042FCF7F7FF03918C
:1031300064210B98FCF7F2FF029001461FA0039A4E
:1031400000F0F2F90A980390002801DB039901E0EE
:103150000399494208466421FCF7E0FF029164218B
:103160000A98FCF7DBFF0190014618A0029A00F0D4
:10317000DBF91B4801781BA000F0D6F925B0F0BDA3
:103180000C0000200002002012DE04005042040067
:103190002AC90300F69E02001319DD11C02ADAEFD6
:1031A000931001000030C11D1027000044697374A2
:1031B0005F636D3A202534642000000052583A20A5
:1031C0002534642E2532642000000000436C6B50CF
:1031D000504D3A202532642E253264200000000034
:1031E000210000205365714E3A202533640D0A00FA
:1031F00000B501460B00FFF74AF908110507090B56
:103200000D110F11012000BD0220FCE70320FAE799
:103210000420F8E70520F6E70720F4E70020C04384
:10322000F1E7000070B5FFB081B004460E4612A170
:103230006846FDF766F82046FDF741F8FF21F731B3
:1032400088420ED2214601A80230FDF75AF82046E6
:10325000FDF735F8801D694645180AA12846FDF797
:1032600050F86846FDF72BF805462946684601F0F8
:103270005FFE7FB001B070BD6572726F72200D0A83
:10328000000000000D0A0000F0B58BB0064602AC4D
:103290000025242102A8FDF707F8002060602060C7
:1032A00000BF2168705CFCF7E0FF21687054206863
:1032B000401C2060305C0028F3D123461C3322469A
:1032C00008322CA13046FDF739F80020206020E0BC
:1032D0000C212068484329494518204608302968B0
:1032E000FCF7F4FF002811D120460830FCF7E7FF77
:1032F00007462868FCF7E3FF874207D1012060609A
:103300006868002802D10220606009E02068401C43
:1033100020600C2120684843184908580028D7D15C
:1033200000BF6068012802D002281FD104E02146B6
:1033300013A0FFF777FF1AE001F0A0FB0190E2690C
:10334000AB683046019998472062206A002808D06F
:10335000206AFCF7B4FF07463946206A01F0E8FD11
:1033600003E021460BA0FFF75DFF00E000BF00BFB8
:103370000BB0F0BD25313073202564009055000856
:1033800020696E636F6D70617469626C65206D6F2A
:10339000646500002066756E6374696F6E000000DE
:1033A000F8B50446204601F057FB06460120B04020
:1033B0000546611B48012946FCF79AFE074678003E
:1033C0000449095AFF202E307043081800900098D5
:1033D000F8BD00002854000870B5044601F066FDF1
:1033E000051900BF01F062FD401B0028FADD70BD29
:1033F0000146002904D0012904D0022906D103E0A6
:103400006E2070470348FCE70348FAE70020C043FA
:10341000F7E70000520300009A1A000000B50246C8
:103420001046FFF7E5FE00BD0146002906D0012940
:1034300006D0022906D0032908D105E008207047EC
:103440001020FCE72020FAE74020F8E70020C043E6
:10345000F5E700B501468807800F002821D18810C4
:103460000300FFF714F80E1E1C11081E1A0E1E1E74
:10347000170B1E1E141E0120000300BD0120C002F8
:10348000FBE703204002F8E701208002F5E7012076
:103490004002F2E7FF200130EFE78020EDE7402017
:1034A000EBE70020C043E8E70146012902D00229EA
:1034B00004D101E0102070474020FCE70020C04309
:1034C000F9E70000F8B505460C4672B60E480768E5
:1034D0000068A04202D20C48006800E02046024684
:1034E0000A492846FCF7C7FE00200749086000216A
:1034F000601E29540A263046FEF7D8FF00200449F2
:10350000087062B63846F8BD4C0000206504002003
:103510005000002001480078704700005000002053
:1035200070470020704700000FB410B5C2B045A826
:103530000190FF21013102A8019B449AFEF77AFF16
:103540000446002C0BDBFF200130844207D80748DB
:103550000068002803D1214602A801F0E9FC002000
:10356000019042B010BC08BC04B018474C000020C9
:10357000F0B585B00446002003900290257860796C
:1035800040008949085A01906078401EC6B2042D57
:1035900001D0072D01D1012000E000200090E0794A
:1035A00000280CD181480068006901218905084381
:1035B0007E49096808610198C010019008E07B48C5
:1035C0000068006901218905884378490968086114
:1035D000207A764909688872744800680069032176
:1035E00009048843714909680861704800680069E6
:1035F000217A090403221204114008436B49096827
:1036000008616A48006800210269042000F062FD38
:1036100067492E20019A00F04EFD3046FEF772FFFA
:103620006448405D800064490A5807212B2000F05F
:1036300051FD6048405D61490A5C0B212B2000F080
:103640005CFD5F4900980A5C0B21282000F055FDC5
:103650005848405D80005B490A580C21282000F042
:1036600039FDE079800058494018A1794900425A53
:103670000221272000F01FFD700054490A5A04213E
:10368000272000F018FDE079002805D164220621EA
:10369000272000F010FD17E0A07804280AD110229E
:1036A0000621272000F007FD10222621272000F008
:1036B00024FD09E020220621272000F0FCFC28221E
:1036C0002621272000F019FD300141494018E178FA
:1036D000890042580821272000F0FCFC608900285E
:1036E00001D13C48608162892021272000F0E3FC61
:1036F00039480C210268232000F0ECFC71003648A8
:10370000001D425A0421232000F0D5FCA079002896
:103710000AD0E07931490A5C0021212000F0EDFC5B
:1037200003200390012002902807000F2901F022B6
:103730001140084361788904032292041140084330
:103740000399090592001140084302994904012296
:10375000520411400843217989051F229205114026
:1037600008436179C906C90EC906084307463A46A7
:1037700000211F2000F0AEFCA0786178084300040F
:10378000E1794903084309490968C86007480068A6
:103790000021C268082000F09DFC422200210D207B
:1037A00000F0ABFC05B0F0BD50550008440000200F
:1037B00004280000D4540008F45400080C550008F4
:1037C00012550008DC540008205500082C5500084C
:1037D0003055000841100000145500081C55000821
:1037E00010B5044647222821312000F086FC012C28
:1037F00005D10E220A21272000F07FFC04E02022C0
:103800000A21272000F079FC10BD000070B50021CE
:103810000E2000F02CFA0546FFF783FE0446002236
:1038200011460E2000F056FC402200210D2000F031
:1038300064FC0A4A00210F2000F04CFC00F028FC38
:103840002A4600210E2000F045FC2046FFF768FEC6
:10385000002003490968487570BD0000F8FF27245F
:1038600044000020F8B504460025002700208649C2
:103870000968087584490968487583490968C882D8
:1038800081490968886280490968C8627E49096877
:1038900008637D490968486300F02AFA7B49884239
:1038A00001D08817F8BD02202040002801D100F087
:1038B00093FB02202040002803D0F820204000285D
:1038C00002D10020FEF746FE04220021242000F051
:1038D00014FC02202040002815D10420FEF7C1FE70
:1038E0000746F8B200281ED0022212212D2000F037
:1038F00004FC65480068C08A012109030843624945
:103900000968C8820FE03021282000F0B0F9604932
:10391000884208D05C480068C08A01210903084336
:1039200059490968C88202202040002807D0022097
:10393000204000280CD008202040002808D01E205D
:10394000FEF78FFE85B228124F490968C87203E05E
:1039500000204D490968C87202202040002807D184
:10396000E806C00E002800D11025E8B200F026FBC2
:1039700010202040002806D00620FEF772FE4249A3
:103980000968086003E000203F49096808602020BA
:103990002040002806D00720FEF763FE3A49096858
:1039A000486003E000203849096848604020204012
:1039B000002806D00820FEF754FE33490968087233
:1039C00003E0002030490968087280202040002868
:1039D00006D00920FEF745FE2B490968487203E02E
:1039E00000202949096848720220204000281CD183
:1039F000E007C00F00280BD0FEF722FE2248006827
:103A0000C08A0121C90208431F490968C88219E018
:103A10000521362000F018F906461E4806403246B9
:103A20000521362000F047FB0CE004202040002850
:103A300008D115480068C08A0121C902084312490B
:103A40000968C8820120FEF785FD00220A212C208A
:103A500000F053FB0021042000F009F90A4909682D
:103A60000861094800680069032109040840000C46
:103A70000549096888720021082000F0F8F8024919
:103A80000968C86000200DE7440000203001CADE4C
:103A900088888888FFFD000070B500210F2000F0A5
:103AA000E6F8674909680446C861012080032040A0
:103AB000002865D06F22120200210F2000F00AFBBF
:103AC00000215F4800681C300172102000F0BCF833
:103AD0000546AE05B60D5A480068807A002801D127
:103AE0007606760E5648006806840120C0032840FA
:103AF000002809D0524800681C30007A0121084390
:103B00004F4909681C3108724D480368223302226C
:103B10000021112000F010F908202040002818D0C2
:103B2000474800681C30807920210840002810D1C7
:103B3000082200210F2000F0CDFA41480068C0693A
:103B4000082188433E490968C86100203C4909684A
:103B500048753B480068C06A002806D038480068AD
:103B6000C16A374800681C30884735480068007DC6
:103B7000002804D0012203210D2000F0BEFA00BF6E
:103B80008020204000281DD0F82200210F2000F0C6
:103B9000A1FA08202040002808D029480068407D6C
:103BA000002803D0FFF732FE00F049F924480068EE
:103BB000806A002806D022480068816A2048006890
:103BC0001C308847112040042040002819D00122D1
:103BD000520400210F2000F07DFA002018490968E6
:103BE0004875FFF713FE00F02AF915480068006BCE
:103BF000002806D012480068016B114800681C308C
:103C0000884710482040002818D00E4A00210F2075
:103C100000F060FA00200A4909684875FFF7F6FDD0
:103C200000F00DF906480068406B002806D00448F3
:103C30000068416B024800681C30884770BD000076
:103C40004400002000900524F8B504460D460026E7
:103C5000A9B2A0B26B46022200F06EF86846407826
:103C6000010268460078081886B23046F8BDF8B5FB
:103C700005460E460027B1B2A8B26B46042200F0FA
:103C80005BF8032404E038026946095D4718641EA6
:103C9000002CF8DA3846F8BD38B504460D46A9B20E
:103CA000A0B26B46012200F047F86846007838BDA4
:103CB00038B500246B4603222821272000F03CF869
:103CC000022504E020026946495D44186D1E002D5E
:103CD000F8DA012000052040002802D00348044300
:103CE00001E0E402E40A204638BD00000000F0FFD5
:103CF00010B500210846FFF7BAFF10BD10B5044605
:103D000005211520FFF7A0FFE08100212E20FFF7FD
:103D10009BFF2080231D08220021122000F00CF8B8
:103D200007211520FFF790FF608000211020FFF78A
:103D30009EFF000DA08110BDFFB581B006460C4668
:103D400017460025002C04D129466D1C68464654B0
:103D50001AE040203043C2B229466D1C68464254E6
:103D60007F2C04DC28466D1C69460C540CE0E0B244
:103D70008021084329466D1C6A4650546004020E97
:103D800028466D1C69460A54A8B23A466946049B07
:103D900001F012F905B0F0BD70B504460D461646A7
:103DA00023462A4631461120FFF7C6FF70BD10B5E5
:103DB00004462346052200211520FFF7BDFF10BD54
:103DC00010B500211520FFF752FF10BD10B50021DE
:103DD0001720FFF74CFF10BD70B5044604202040AB
:103DE000002801D100F054F9FF250135E007C00F8C
:103DF000002801D0680005432A4600210D2000F06C
:103E00005AF9E007C00F002817D003210F20FFF751
:103E100043FF06460820304000280ED0FFF7F6FC8E
:103E200002202040002805D1FF22013200210D2070
:103E300000F041F90020C04370BD0020FCE710B540
:103E4000E0220321362000F058F9F0220321362029
:103E500000F053F910BD10B50446224601210A2096
:103E600000F038F910BD70B50546E807C00F00280E
:103E70003BD000212620FFF7FAFE04460F218902DD
:103E80002046884304460520800204432246002140
:103E9000262000F01FF900213620FFF7E8FE044637
:103EA00021208004044322460021362000F012F92C
:103EB000FF24113402202840002802D00F200004E3
:103EC000044322462821362000F004F9022028402D
:103ED000002819D00F2109042046884304462246B1
:103EE0002821362000F0F6F80EE000212620FFF70A
:103EF000BEFE04460F21890220468843044622461E
:103F00000021262000F0E6F870BD70B505460021BE
:103F10001A20FFF7ACFE0446240D24052803000BED
:103F20000443224600211A2000F0D4F870BD00009E
:103F300010B50446224602492E2000F0BCF810BD00
:103F40000418000070B5044603210420FFF7A4FE06
:103F50000546002C15DD224600210C2000F0ABF8B0
:103F60001020054310480068006901210907084333
:103F70000D49096808612A460321042000F0BDF8B4
:103F800010E010212846884305460748006800696C
:103F9000090688430449096808612A460321042068
:103FA00000F0ABF870BD00004400002010B50446DE
:103FB00022460021182000F07EF810BD70B504469E
:103FC000E006C00E6021084305462A460E212B203C
:103FD00000F093F870BD000010B5FEF7B1FA0022B2
:103FE00011462C2000F067F8002206212C2000F05A
:103FF00084F8FEF77AFA00220321362000F07DF8DB
:104000000120FFF7E9F9F0220321362000F075F8CE
:10401000002002490968487510BD000044000020D6
:10402000F8B504460026002500270220204000287D
:1040300004D080250120154909684875E007C00FA4
:1040400000281AD0062005432A4600210D2000F042
:1040500054F803210F20FFF7F7FD07468120C00029
:104060003840002801D100260EE0402200210D201A
:1040700000F043F80026F64306E0022005432A46F6
:1040800000210D2000F039F83046F8BD4400002032
:1040900010B503210F20FFF7FFFD044680202040CC
:1040A000402121404900884204D0012203210D20F3
:1040B00000F023F810BDF8B505460E4614466846D4
:1040C000047021124170B1B2A8B26B46022200F016
:1040D0001EF8F8BDF8B506460F461446002503E065
:1040E00069464C55240A6D1C042DF9DBB9B2B0B2F7
:1040F0006B46042200F00BF8F8BD37B504460D46B8
:10410000A9B2A0B202AB012200F001F83EBDFFB59A
:1041100081B006460C4617460025002C07D18020AA
:104120003043C2B228466D1C69460A5419E0C020CB
:104130003043C2B228466D1C69460A547F2C03DC0A
:1041400028466D1C0C540CE0E0B28021084329463F
:104150006D1C6A4650546004020E28466D1C694668
:104160000A54A8B23A466946049B01F019F905B011
:10417000F0BD70B504460E46154628190121890286
:10418000884207DCA21E334629460920FFF7BFFFFD
:10419000002070BD0020C043FBE70000F8B50446D6
:1041A0000D46164607480068C0682043A905084325
:1041B000F103084307463A4600210820FFF78AFF2B
:1041C000F8BD00004400002000BF00BF00BF00BFDA
:1041D00000BFBFF34F8F00BF00BF00BF06480749B5
:1041E000C86000BF00BF00BFBFF34F8F00BF00BF5C
:1041F00000BF00BF00BFFDE70400FA0500ED00E0CE
:1042000010B50346012463204454014810BD00004A
:104210008B55000810B50346002463204454014820
:1042200010BD00008B550008F8B50C461546284611
:10423000FEF7DEFF06460027002E01DB2670014F49
:104240003846F8BD8B550008F8B50C46154628468B
:10425000FEF796FE06460027002E01DBE671014FB1
:104260003846F8BD8B550008F0B5FFB084B007465E
:1042700000252CA103C9829181902C4A2CA101A870
:10428000FEF7C4F8044601A8FCF719F801A946187E
:1042900029A13046FEF7BAF801A8FCF710F801A9E9
:1042A000461828A13046FEF7B1F801A8FCF707F838
:1042B00001A9461881AA2BA13046FEF7A7F801A84C
:1042C000FBF7FDFF01A946182BA32EA230A1304613
:1042D000FEF79CF801A8FBF7F2FF01A9461831A2EE
:1042E0003AA13046FEF792F801A8FBF7E8FF061B5B
:1042F00032463AA101A80230FEF788F87B2001A9D6
:10430000085501A8FBF7DBFF0646314601A800F07F
:104310000FFE022122A000F00BFE324D28467FB096
:1043200004B0F0BD312E302E300000005A5A00008B
:104330004A532530345800007B22496E666F223A7A
:104340007B0D0A0022446576696365223A22445750
:104350004D31303034432053532D545752222C0DBD
:104360000A0000002256657273696F6E223A222598
:1043700073222C0D0A00000031353A31343A3436BC
:10438000000000004F6374202031203230323000B2
:10439000224275696C64223A222573202573222CEF
:1043A0000D0A00004457313030302044657669638F
:1043B00065204472697665722056657273696F6E06
:1043C0002030352E30312E30310000002244726909
:1043D000766572223A222573227D7D00253034587D
:1043E000000000008B550008F0B5FFB082B0064613
:1043F0000024002510E00C2060430D490A580DA14F
:1044000001A8FEF703F801A8FBF759FF0746394654
:1044100001A800F08DFD641C0C206043044908587D
:104420000028E8D1054D28467FB002B0F0BD00005D
:10443000905500082573200D0A0000008B550008D8
:1044400070B506460D46144629460C312046FBF74A
:104450006BFF014870BD00008B55000870B5064623
:104460000C461546214610312846FBF75DFF0148F2
:1044700070BD00008B550008F0B5FFB088B00C4649
:10448000824A83A107A8FDF7C1FF054607A8FBF7ED
:1044900016FF07A9461880A13046FDF7B7FF207820
:1044A000FEF7BCFF074607A8FBF709FF07A9461858
:1044B0003A467EA13046FDF7A9FF6078FEF7F4FF8B
:1044C000074607A8FBF7FBFE07A946183A467BA15B
:1044D0003046FDF79BFFA078FEF7BBFF074607A815
:1044E000FBF7EDFE07A946183A4677A13046FDF7DF
:1044F0008DFFE079FEF77CFF074607A8FBF7DFFE9C
:1045000007A946183A4674A13046FDF77FFF07A871
:10451000FBF7D5FE07A94618227974A13046FDF7AE
:1045200075FFE078FEF780FF074607A8FBF7C7FE98
:1045300007A946183A4671A13046FDF767FF07A85C
:10454000FBF7BDFE07A94618A2796FA13046FDF71B
:104550005DFF07A8FBF7B3FE07A94618227A6EA1F4
:104560003046FDF753FF07A8FBF7A9FE07A9461839
:10457000607E217E0002084302466BA13046FDF7B3
:1045800045FF20460C30FBF7C5FE074607A8FBF7A2
:1045900096FE07A946183A4668A13046FDF736FF51
:1045A00020461030FBF7B6FE074607A8FBF787FE4C
:1045B00007A946183A4666A13046FDF727FF07A827
:1045C000FBF77DFE07A94618227D66A13046FDF760
:1045D0001DFF07A8FBF773FE07A946182220025DFE
:1045E00065A13046FDF712FF07A8FBF768FE07A993
:1045F0004618A07EE17E227F637F0293039204919E
:104600000590A07FE17F009101902020035D212093
:10461000025D5EA13046FDF7F9FE07A8FBF74FFEED
:1046200007A946186320025D64A13046FDF7EEFE3F
:1046300007A8FBF744FE07A946186420025D63A1A2
:104640003046FDF7E3FE07A8FBF739FE461B32466E
:1046500061A107A80230FDF7D9FE7B2007A94855C4
:1046600007A8FBF72CFE07A9461823A13046FDF743
:10467000CDFE07A8FBF723FE0646314607A800F04B
:1046800057FC57487FB008B0F0BD00005A5A0000F0
:104690004A532530345800007B2255574220504160
:1046A00052414D223A7B0D0A00000000224348414E
:1046B0004E223A25642C0D0A00000000225052467A
:1046C000223A25642C0D0A0022504C454E223A25F0
:1046D000642C0D0A00000000224441544152415410
:1046E00045223A25642C0D0A00000000225458434C
:1046F0004F4445223A25642C0D0A000022504143C4
:10470000223A25642C0D0A00224E53534644223A85
:1047100025642C0D0A000000225048524D4F44459C
:10472000223A25642C0D0A0022534D415254504F19
:10473000574552223A25642C0D0A000022424C496A
:104740004E4B46415354223A256C752C0D0A0000FD
:1047500022424C494E4B534C4F57223A256C752CF4
:104760000D0A00002252414E444F4D4E45535322F4
:104770003A25642C0D0A0000225441474944534510
:1047800054223A25642C0D0A0000000022544147AF
:104790004944223A30782530327825303278253035
:1047A000327825303278253032782530327825300D
:1047B0003278253032782C0D0A00000022545752EE
:1047C0005F524F4C45223A25640D0A00224E4C4F51
:1047D00053223A25647D7D002530345800000000C6
:1047E0008B55000810B50346002A01D0012400E0D3
:1047F000002464204454014810BD00008B5500087B
:104800000346002A01D0012000E000208871014801
:10481000704700008B5500080346002A01D0012094
:1048200000E0002008720148704700008B55000826
:10483000F8B50C461546284600F001FB0646002751
:10484000002E01DBA670014F3846F8BD8B550008DD
:10485000F8B50C461546284600F073FB06460027BF
:10486000002E01DB6670014F3846F8BD8B550008FD
:1048700010B503460A75014810BD00008B550008AD
:1048800070B504460D46164600F0BAFC004870BDEF
:104890008B550008F8B50C461546284600F0BAFAC4
:1048A00006460027002E01DBE670014F3846F8BDB2
:1048B0008B55000870B505460C461646204600F09C
:1048C000A9FC014870BD00008B550008034690B25A
:1048D0008872000AC8720148704700008B550008B2
:1048E0000346002A01D0012000E000200876000ADB
:1048F00048760148704700008B550008F8B504461B
:104900000D461646064F324629462046FFF7ACFCB8
:10491000324629462046FFF7AFFD00BF3846F8BDB6
:104920008B550008F0B585B006460C46174669461B
:104930000BA0FDF76BFD6846FBF7C1FC012801D910
:10494000012002E06846FBF7BAFC05462A466946A4
:1049500020461A30FBF78FFC044805B0F0BD00007C
:104960005441474944202573000000008B5500083E
:1049700010B50346002A01D0012400E000242220C3
:104980004454014810BD00008B55000803460148FF
:10499000704700008B55000803460148704700002F
:1049A0008B55000803460A714A71014870470000A0
:1049B0008B550008F0B585B004460F462046FFF73A
:1049C0009DF9A5892C212720FFF73EF90390039834
:1049D00085420ED100211020FFF749F90321490338
:1049E0000840400B02900298002801D1403D00E0B1
:1049F0006D1F00211020FFF73AF903210904084038
:104A0000000C0190012109040198884201D1104E47
:104A100000E0104E608840430490E08840430499D1
:104A20004018049020894043049940180490294676
:104A300069430846FEF7B4FC009061894804FEF71C
:104A4000AFFC01460098081A801B386005B0F0BD25
:104A5000712C00008E2F00000246012100BF06E0ED
:104A600001208840904200D903E0481CC1B22029AF
:104A7000F6DB00BF481EC0B2704700000148006866
:104A8000704700000002002010B51021052000072B
:104A9000FCF715FC10BD000010B565210A48FCF7B5
:104AA0001BFA0446084860304079A04202D007480B
:104AB00000F0B0FB652204490548FBF7DCFB044825
:104AC0000449086010BD00000001002000580008E3
:104AD00000040020000200209D4840680721084390
:104AE0009B4948600120FCF7B5FA01200007FCF75C
:104AF000A3FAFDF72FFA0720964908610120C003A9
:104B00009549C968024691430143934AD16000BF69
:104B1000FCF79AFEFDF722F8FDF78AF8FCF794FF00
:104B2000FCF75AFEFDF706F8FFF7AEFF8B480021B1
:104B3000016041608160C16000F098FAFFF7ACFF4E
:104B400000F094FA00F0D6F90120FEF78BFE401C2D
:104B5000002804D182A0FEF7E7FC00BFFEE700F0CA
:104B6000ABF97E490868FEF703FD7C4800680078D1
:104B7000C0007F494118794800684078401E800095
:104B80000A5800211E20FFF7A5FA74480068007833
:104B900078490A5C0B212A20FFF7AFFA6F480068BA
:104BA0008078042804D16D4909684878FEF718FE1A
:104BB0006A4909686031087900F05AFB6E48FFF7CE
:104BC000B7F96D48FFF7F2F9644800686030C078C3
:104BD000012802D18C20FFF798F96848FFF7B2F955
:104BE0000320FFF740F966A0FEF79EFCAEE06748A1
:104BF0000078002822D000206449087064A0FEF7E5
:104C000093FC564800686030C07801280ED100211E
:104C1000524800686030C17063A0FEF785FC8C20AC
:104C2000FFF773F95548FFF78DF907E001214B486D
:104C300000686030C17066A0FEF776FCFEF76AFC83
:104C4000002804D000F08AF90220FCF7B5F94348A7
:104C500000686030C07801281ED10820FCF7CCF92C
:104C60006548007865498870802200210F20FFF791
:104C700031FA002261490C20FFF77BFA0122002162
:104C80000C20FFF78BFA0220FFF7CAF95A48007888
:104C9000401C5949087005E00120FCF7ADF90020DF
:104CA000FFF79AF800BF00210F20FEF7E0FF5449FC
:104CB0000860544908400028F5D051480068012197
:104CC00089030840002828D00A4600210F20FFF75A
:104CD00001FA00211020FEF7CAFF4406640E402CA2
:104CE00004D8A1B200224848FFF756F84648807819
:104CF00046490870002044498870184800686030B0
:104D0000C078012804D1E1B23F48FEF753F903E02F
:104D1000E1B23D4800F0D0F906E03D4A00210F2005
:104D2000FFF7D8F9FFF78BF80B20FCF745F90B4894
:104D300000686030C078012808D108490968084631
:104D40000C30FBF7E7FA0446FEF746FB4FE700009E
:104D50000058014000E000E0001002400002002086
:104D6000494E4954204641494C45440A0000000040
:104D700068540008A854000834400000E8FD000012
:104D80005374617274696E670A0000003C00002071
:104D90005573657220627574746F6E2070726573DE
:104DA0007365640A00000000537769746368696E74
:104DB000672066726F6D205457525F494E495420E8
:104DC000746F205457525F524553500A0000000040
:104DD000537769746368696E672066726F6D2054DB
:104DE00057525F5245535020746F205457525F49B9
:104DF0004E49540A0000000020000020000000205E
:104E00002400002000D027241002002021000020D0
:104E1000009027240146082906D0102906D0202911
:104E200006D0402908D105E0002070470120FCE7AA
:104E30000220FAE70320F8E70020C043F5E7014627
:104E4000084601239B02CA1A994221D00CDC402853
:104E500026D0802822D0FF38013800281CD0FF3807
:104E6000013800281ED115E0D01FFF38FA3800287D
:104E70000CD0FF38FF380238002805D00122D202BA
:104E8000801A0FD10C2070472820FCE71820FAE781
:104E90000820F8E73420F6E72420F4E71420F2E7AE
:104EA0000420F0E70020C043EDE70000014800685F
:104EB000704700006000002010B500BF0C48FCF7F0
:104EC0009FFB0028FAD10A48FCF7A0FB002803D07A
:104ED00000BF0748C06800BF0548FCF74BFB002136
:104EE0000348FCF7A1FB0248FCF749FB10BD00009A
:104EF0000030014010B500BF0C48FCF781FB0028D2
:104F0000FAD10A48FCF782FB002803D000BF07480B
:104F1000C06800BF0548FCF72DFB18210348FCF7CB
:104F200083FB0248FCF72BFB10BD00000030014062
:104F300030B504460D462A4621460020FEF710F8FB
:104F400030BD0146102902D0402904D101E00120E2
:104F500070470220FCE70020C043F9E770B590B02D
:104F600040216846FBF7A0F940216846FEF7AAFAFF
:104F70000546002D19DDA9B2684600F08DF90446FA
:104F8000012C12D10A480088401E3F2803D208484D
:104F90000088401E00E03F2006460021054A701CA4
:104FA00011541046FEF770F900BF10B070BD00003C
:104FB0004800002088020020F8B506460C46174637
:104FC0001D4600BF2748FCF715FB0028FAD1FEF765
:104FD000A8FA009001212448FCF769F90AE000BF13
:104FE0002048FCF71BFB0028FAD02178641C1D48E0
:104FF000FCF720FB3046711E8EB20028EFD100BFB7
:105000001848FCF7F7FA0028FAD100BF1548C06825
:105010001AE000BF1348FCF701FB0028FAD000217A
:105020001048FCF707FB00BF00BF0E488068C007B0
:10503000C00F0121484048400028F5D000BF094872
:10504000C068C0B228706D1C38467F1E0028E0D1B1
:1050500001210548FCF731F90098FEF761FA0020BC
:10506000F8BD0000003001400004005000B587B0DA
:105070000220019001200290002003900490022061
:10508000059001A90B48FCF793F802210948FCF7A9
:1050900010F90120FCF770FB022001900020029023
:1050A000059001A90348FCF783F80520FCF764FB91
:1050B00007B000BD00040050F3B585B0002046499C
:1050C00088700A220598FBF70FF900287DD100218E
:1050D0000291039102A8FEF76AFE404909688878A8
:1050E000FEF7B7F907463D490968C879FEF780F928
:1050F00004900498002804D039480499FAF7F8FF7E
:1051000004467D20C0003818001900040021039BCC
:10511000029A801859410906000A084306467D2074
:10512000C000381800040021039B029A80185941DE
:105130000906000A084306463046FEF78CFE710851
:10514000490000200A0E000210430B02254A0021EC
:105150009A184841009201900A212348FBF7A4F8CD
:1051600021480A386946098941816946498981810E
:10517000042269460F30FBF77EF81C4800781A4974
:105180000A39887000221620FEF7F3FF0122002161
:105190001620FFF703F80120FEF742FF0546002D19
:1051A00014D100BF00210F20FEF761FD80210840CF
:1051B0000028F7D0802200210F20FEF78BFF0B483C
:1051C0000078401C0949087003E003E008A0FEF7DE
:1051D000ABF900BF07B0F0BD0000002000020020C6
:1051E0000071020034400000320000202000002046
:1051F0004552522054585F444C5945440A0000001F
:1052000010B5034800F006F8FFF746FC10BD00009B
:1052100000580008F0B5C1B00546FF229A211AA82F
:105220000230FBF73AF86522294601A8FBF723F87C
:10523000652101A8FBF750FE18A948720B4E01AF7B
:105240004020009072B6FDF7C1F8002406E0A200ED
:10525000B958A2009019FBF77FFE641C00988442A5
:10526000F5D3FCF7A1FA62B641B0F0BD0001002011
:1052700070B50546002D06D16D24224605492E2025
:10528000FEF73BFF05E00724224602492E20FEF7E9
:1052900034FF70BD0608000070B504460D460026B8
:1052A000022D51DC35480078002803D140213448D4
:1052B000FAF7FAFF314800783F283DD220780A28D3
:1052C00002D020780D2816D12C480078002852DD15
:1052D0002A4802782A492B48FAF7CDFF2748007858
:1052E0002949088000202749244A12788854012639
:1052F000224908703FE02078082812D11F48007822
:10530000002838DD1D480078401E1C490870002028
:105310001B491A4A1278885403211CA0FFF708FE83
:1053200029E021781648154A1278815413480078EC
:10533000401C124908701EE0022115A0FFF7F8FD7D
:1053400000200E49087016E03F2D0DD22A46214656
:105350000C48FAF790FF0C48058000200949485591
:1053600006490870012606E002210AA0FFF7E0FDC9
:10537000002002490870304670BD00004A0000203D
:10538000C802002088020020480000201B5B4B0060
:105390000D0A00004572726F723A200D0A0000007B
:1053A000F8B506460C4617461D46FEF7BAF80090BB
:1053B00001211948FBF77BFF0AE000BF1748FCF703
:1053C0002DF90028FAD02178641C1448FCF732F932
:1053D0003046711E8EB20028EFD10AE000BF0F48A0
:1053E000FCF71CF90028FAD029786D1C0B48FCF753
:1053F00021F938467F1E0028F0D100BF0748FCF78E
:10540000F9F80028FAD101210348FBF756FF00986C
:10541000FEF786F80020F8BD00040050003001407F
:10542000081C3044586C800000000D001A00260053
:1054300033003F004A00550060006B00760080009A
:105440008A0094009D00A600B000B900C100CA0007
:10545000D200DB00E300EB00F300FA0002010901D7
:10546000110118011F0126010000000000000000CA
:10547000757575756767676775757575676767674C
:105480006F6F6F6F8B8B8B8B5F5F5F5F9A9A9A9A50
:1054900048484848858585850000000000000000D8
:1054A00092929292D1D1D1D100C9C2C595B5009343
:1054B00000000000000000000102030406070809C4
:1054C0000000000001020304030406080C10182069
:1054D000300000000000010203040005405C0000F1
:1054E000A05C0400C06C0800805C0400E33F1E0068
:1054F000E07D1E0007040009080540080910400867
:10550000080540081D0400081D0400081E26562634
:10551000BEBED8BC07A9022570889B884010080031
:105520000A001600010006000100020087008D003D
:105530003C001A3152001A339A001A351D011A37ED
:105540006B003B31BE003B335E013B3596023B377F
:10555000000098599859EA518E421E45142E008039
:10556000EA51F4283233E03A703DE03AC235842BF8
:10557000C2353233C235C235AE47E03A5038A23078
:1055800050380000081C3044586C806F6B0D0A00C6
:10559000A857000800000000FD48000884570008D4
:1055A00000000000E9430008405700080000000028
:1055B000B54800082C57000800000000814800088A
:1055C0005C57000800000000294200084857000806
:1055D0000000000051480008645700080000000067
:1055E00031480008085700080000000095480008EE
:1055F0001C57000800000000A54900080C570008CF
:1056000000000000014800083457000800000000B6
:10561000494200082457000800000000194800080B
:105620007C57000800000000CD4800086C570008B7
:1056300000000000E1480008545700080000000086
:10564000994900084C570008000000008D490008E7
:10565000CC5700080000000041440008D85700085B
:10566000000000005D4400089C5700080000000096
:105670007148000814570008000000002549000880
:10568000B05700080000000071490008C457000826
:1056900000000000014200088C57000800000000D4
:1056A00015420008BC57000800000000C94100086E
:1056B0009457000800000000E547000800000000C3
:1056C0000000000000000000DDDDDDDDDCBBBBDD37
:1056D000DDDDDDDDDDDDDDDD988888888888888892
:1056E00077777777778888888555555666666666B2
:1056F0006666666666688888833333322222222291
:10570000222222222228888D504143004E535346A4
:105710004400000054414749440000005458434F9E
:10572000444500005048524D4F44450052455354A3
:105730004F5245004441544152415445000000003D
:105740005341564500000000505246005443464D18
:10575000000000005443574D000000004348414EF4
:1057600000000000504C454E00000000534D4152D7
:1057700054504F574552454E000000005346445484
:105780004F00000048454C50000000005245535067
:10579000000000004E4C4F530000000052414E44A8
:1057A0004F4D4E45535300005354415400000000E8
:1057B0005441474944534554000000005245534565
:1057C00054000000494E495400000000424C494E2C
:1057D0004B46415354000000424C494E4B534C4FF2
:1057E0005700000000000000000000000000000062
:1057F00000000000000000000000000000000000A9
:1058000002021400090900020000411064000000B7
:10581000881300000A0000000100000000000000E2
:1058200000000044573130303020446576696365AC
:10583000204472697665722056657273696F6E20B6
:1058400030352E30312E30310000000000000000D5
:105850000000000000000000000000000000000048
:105860000000000000000000885800080000002030
:1058700000020000800E0008AC5800080002002062
:1058800068070000DC2400081341882008CADE579E
:10589000415645E0390C061256455741E109181C9E
:0C58A00012201B50020501FF01B800009F
:04000005080000C12E
:00000001FF
